:100B600078404BE20400A0E10010A0E36420A0E381
:100B7000C41100EB0400A0E104109BE508208BE207
:100B8000991100EB0400A0E1C51100EB0050A0E1B9
:100B90000040A0E3000054E1060000AA14204BE24C
:100BA000043082E0640053E555FFFFEB014084E22E
:100BB000050054E1F8FFFFBA30681BE91EFF2FE182
:100BC000064A074B1A60E0231B0603221A70054AE7
:100BD00056235B421370552313707047E8C2C90156
:100BE000040000E0080000E07047C04670470000C5
:100BF00010B50B7858400006040E2301221C5A4001
:100C00001206140E0B881B0A20024340E0004340EA
:100C1000120F5A400A80088810BC02BC0847000026
:100C2000F0B581B0061C0D1C141C1F1C012802D03D
:100C3000022805D024E0014A03E0000063630000BD
:100C40000A4A6B4602331A80287801356946023118
:100C5000FFF7CEFF013C002CF6D1022E08D16A46E8
:100C600002321388DB43138002E00000FFFFFFFF26
:100C70006A46023213883B701288120A069B1A7069
:100C800001B0F0BC01BC0047F0B5061C0D1C0021F2
:100C90000020041CA84214D2FF270A12335D5340DF
:100CA0001B041B0C3B401A1153400A0219034A4013
:100CB00059014A4053401B041814011C0134AC4232
:100CC000EBD3C0430004000CF0BC02BC084700009A
:100CD000F0B5061C0D1CFFF789FF054A054B1A806D
:100CE0000020A84218D21C1CFF229446024F05E0A7
:100CF00000000000700F00404892000021880B0A9D
:100D0000325C53406246134009025B00DB5B594092
:100D100021800130A842F1D3024B1888F0BC02BCFC
:100D200008470000700F004000B5081C111CFFF7B9
:100D3000CFFF0004000C02BC0847000070B5041C83
:100D4000081C0021013801235B42984210D00B4E51
:100D500001256D4209040B0E227853405B00090AFD
:100D60009B5B4B401B04191401340138A842F1D19C
:100D70000804000C70BC02BC084700006894000026
:100D800070B5041C081C01214942013888420FD06B
:100D90000A4E0D1C09040B0E227853405B00090A11
:100DA0009B5B4B401B04191401340138A842F1D15C
:100DB0000804000C70BC02BC0847000068940000E6
:100DC000F0B5041C081C151C013801235B42984235
:100DD0000FD0094F0126764229880B0A227853400A
:100DE0005B000902DB5B4B402B8001340138B042D1
:100DF000F2D1F0BC01BC00476894000070B581B02E
:100E00001206160E1D062D0E6C460234064B23806C
:100E1000221CFFF7D5FF22882378AB4206D1130AA4
:100E2000B34203D1012002E000000000002001B025
:100E300070BC02BC0847C046084A1368042003433C
:100E40001360136808210B431360054A13680343BA
:100E5000136013680B43136070470000088002E0C2
:100E6000048002E030B50E4A13680824234313605F
:100E70000C4A136823431360136804252B43136043
:100E8000042008F099F9084A136823431360136893
:100E90002B431360052008F08FF930BC01BC0047DC
:100EA000088002E0048002E00C8002E030B50B4ACA
:100EB000136808252B431360094A13682B431360FA
:100EC000084C2368042213432360042008F074F9BB
:100ED00023682B43236030BC01BC0047088002E03C
:100EE0000C8002E0048002E0F0B557464646C0B4EC
:100EF0000006040E32490B68082213430B60314987
:100F00000B68042213430B60052008F055F90127F4
:100F10002D4E082292462B4D042398462306002B83
:100F200004DA336852461343336003E02B685246B9
:100F300013432B603368424613433360042008F0A8
:100F40003BF963061C0E2B68424613432B600520B9
:100F500008F032F97B1C1B041F14802212039342F9
:100F6000DCD9194C236808252B432360154A1368E4
:100F7000042633431360052008F01EF9104A136855
:100F8000AB431360236833432360042008F014F953
:100F90000E4B1B682B40002B01D0002400E00124E5
:100FA000084B1A6804210A431A60052008F004F966
:100FB000201C18BC9846A246F0BC02BC08470000A2
:100FC000088002E00C8002E0048002E0008002E081
:100FD000F0B557464646C0B40004001482460025CA
:100FE0002F4803680822134303602E490B681343FC
:100FF0000B600368934303600124884604272A4E4C
:101000006B061D0E424613683B431360042008F034
:10101000D3F8264B1B6808221340002B03D0012372
:101020002B431B061D0E33683B433360052008F03D
:10103000C3F8631C1B041C14802212039342DFD9E3
:10104000174B1A6808210A431A6052461304002BF2
:1010500004D1154A13680B4313600AE05246130487
:1010600080225202934204D10E4B1A6808210A438F
:101070001A600C4A1368042423431360042008F008
:101080009BF8094A136823431360052008F094F87D
:10109000281C18BC9846A246F0BC02BC08470000B9
:1010A000088002E0048002E00C8002E0008002E0A0
:1010B00000B5FFF7D7FE01BC0047000000B5FFF701
:1010C000F5FE01BC0047000000B50006000EFFF76A
:1010D0000BFF0006002801D0012000E0002002BC28
:1010E0000847000000B5000680235B0403431B0E85
:1010F000181CFFF7F9FE0006002801D0012000E0CF
:10110000002002BC0847000000B50006000EFFF7F3
:10111000EBFE0006002801D0012000E0002002BC08
:101120000847000000B50006002801D1002000E0BB
:101130000120FFF74DFF0006000E02BC084700002B
:1011400070B50406240E09060D0E1206160EFFF7E2
:10115000AFFF201CFFF7B8FF0006002811D00620C3
:10116000FFF7D2FF000600280BD0281CFFF7CCFFAA
:101170000006002805D0301CFFF7C6FF0006002837
:1011800001D1002400E00124FFF798FF002C01D1D9
:10119000002000E0012070BC02BC084770B50406C6
:1011A000240E09060D0E1206160EFFF781FF201CF5
:1011B000FFF78AFF0006002811D00220FFF7A4FFE6
:1011C000000600280BD0281CFFF79EFF0006002811
:1011D00005D0301CFFF798FF0006002801D100243D
:1011E00000E00124FFF76AFF002C01D1002000E09D
:1011F000012070BC02BC084770B50D1C161C00060F
:10120000040EFFF755FF201CFFF75EFF00060028C5
:1012100005D00020FFF778FF0006002801D100204C
:1012200017E0FFF74BFFFFF743FF201CFFF75AFFC4
:101230000006002809D00020FFF774FF2870012065
:10124000FFF770FF3070012400E00024FFF736FF45
:10125000201C70BC02BC084770B50006060E0906CB
:101260001206100E7300134A9B181C785D78002933
:101270000AD10443FFF7F6FD4020FFF735FE0220B8
:10128000FFF732FE201C09E00543FFF7EBFD40208D
:10129000FFF72AFE0320FFF727FE281CFFF724FE96
:1012A000FFF704FE7300034A9B181C705D7070BC4E
:1012B00001BC0047B007004070B50006060E0906E5
:1012C0001206100E7300134A9B181C785D780029D3
:1012D0000AD18443FFF7C6FD4020FFF705FE022038
:1012E000FFF702FE201C09E08543FFF7BBFD40200D
:1012F000FFF7FAFD0320FFF7F7FD281CFFF7F4FDC9
:10130000FFF7D4FD7300034A9B181C705D7070BC1E
:1013100001BC0047B007004070B50006060E090684
:101320001206100E7300134A9B181C785D78002972
:101330000AD14440FFF796FD4020FFF7D5FD02207B
:10134000FFF7D2FD201C09E04540FFF78BFD402050
:10135000FFF7CAFD0320FFF7C7FD281CFFF7C4FDF8
:10136000FFF7A4FD7300034A9B181C705D7070BCEE
:1013700001BC0047B007004000B5FFF75DFD40200D
:1013800000210022FFF7DCFE402000210022FFF7B1
:1013900005FF064A00231370537005490A6880232D
:1013A0009B041A430A6001BC00470000B0070040DC
:1013B0001C8002E0F0B51E1C0406240E0D062D0E46
:1013C0001206170EFFF74EFDA020FFF78DFD201C23
:1013D000FFF78AFD281CFFF787FDFFF743FDA120DB
:1013E000FFF782FD00247B1E9C4209DA1D1C0020B1
:1013F000FFF7EEFD3055631C1B061C0EAC42F6DBFE
:101400000120FFF7E5FD3055FFF750FDF0BC01BCB2
:1014100000470000F0B5474680B4904609040E141A
:1014200080225202904201D9012036E003041D0CB3
:1014300033041B0CEB1880225202934201D9022084
:101440002BE07F232A1C1A4080239B1A1B041C14A8
:1014500032049A4200D2141400272304002B1BD01C
:10146000280A0006000E2906090E2206120E43461F
:10147000DB19FFF79FFF321B120423041B0CED182E
:10148000FF18161480231B049A4201D9802400E01F
:10149000341C2304002BE3D1002008BC9846F0BC88
:1014A00002BC084700B5400B1F231840172801D97C
:1014B0000E3803E0072801D9C008073002BC0847EE
:1014C00010B5041C081C111C00228A4204D2835C43
:1014D000A35401328A42FAD310BC01BC0047000079
:1014E00030B5051C0C4C0022231C04C3626004337D
:1014F00004C304C304C304C304C31A6007483223EB
:10150000036045608160211C054B03F039FE2068B3
:1015100030BC02BC08470000E00F00400010004053
:10152000F1FFFF7FF0B5474680B4051C0F1C9046C5
:10153000194C266801235B42184A1360FFF7B2FF7B
:10154000011CFFF7CDFF002803D02368334323603D
:101550001DE0134C0022231C04C36260043304C347
:1015600004C304C304C304C31A600E4833230360D6
:10157000456087604346C3600B4B0361211C0B4BE6
:1015800003F0FEFD044A136833431360206808BC6F
:101590009846F0BC02BC084710F0FFFF14F0FFFFB4
:1015A000E00F00400010004060EA0000F1FFFF7F04
:1015B000F0B5051C0E1C154B1F6801235B42144A35
:1015C0001360011CFFF78CFF00281BD1114C002277
:1015D000231C04C36260043304C304C304C304C3F0
:1015E00004C31A600C4834230360456086600B4BCB
:1015F000C360211C0A4B03F0C3FD044A13683B433C
:1016000013602068F0BC02BC0847000010F0FFFF28
:1016100014F0FFFFE00F00400010004060EA0000FF
:10162000F1FFFF7F30B5051C0C4C0022231C04C3C6
:101630006260043304C304C304C304C304C31A6054
:1016400007483523036045608160211C054B03F08A
:1016500097FD206830BC02BC08470000E00F004046
:1016600000100040F1FFFF7F10B50B4C0022231C3F
:1016700004C36260043304C304C304C304C304C3C7
:101680001A60064836230360211C054B03F078FDE1
:10169000206810BC02BC0847E00F0040001000406A
:1016A000F1FFFF7F10B50B4C0022231C04C36260C6
:1016B000043304C304C304C304C304C31A60064848
:1016C00037230360211C054B03F05AFD206810BC32
:1016D00002BC0847E00F004000100040F1FFFF7F10
:1016E00030B5051C0C4C0020231C01C36060043382
:1016F00001C301C301C301C301C3186007483823F4
:10170000036045608160C260211C054B03F038FD19
:10171000206830BC02BC0847E00F004000100040C9
:10172000F1FFFF7F70B5464640B41A4CA544E84629
:1017300068461949E12207F043FD06200621FFF71C
:1017400037FF06200621FFF76DFFC02636028024F2
:10175000A400301C6946221CFFF7E4FE0620062187
:10176000FFF760FF39AD281C0021221C07F02CFD7B
:10177000281C311C221CFFF7A3FE301C6946221CCA
:10178000FFF7AEFFB9239B009D4408BC984670BC90
:1017900001BC00471CFDFFFF3C9A00004E22A0E365
:1017A0000B2982E2003092E5023183E3013983E3C1
:1017B0000131C3E30239C3E3003082E51EFF2FE1AC
:1017C0000E32A0E37F3983E2843083E22420A0E359
:1017D0000020C3E50E22A0E37F2982E2802082E27E
:1017E0000030D2E5013083E30030C2E50E32A0E3E1
:1017F0007F3983E28C3083E25520E0E30020C3E5AB
:101800005520A0E30020C3E50E22A0E37F2982E259
:10181000B838D2E1010B13E3FCFFFF0A0E22A0E36C
:101820007F2982E2802082E20030D2E5023083E329
:101830000030C2E50E32A0E37F3983E28C3083E2D0
:101840005500E0E30000C3E55510A0E30010C3E538
:101850000E32A0E37F3983E2A43083E22320A0E3A9
:101860000020C3E50E22A0E37F2982E2A02082E2CD
:101870000030D2E5013083E30030C2E50E32A0E350
:101880007F3983E2AC3083E20000C3E50010C3E59A
:101890000E22A0E37F2982E2B83AD2E1010B13E3E2
:1018A000FCFFFF0A0E22A0E37F2982E2A02082E251
:1018B0000030D2E5033083E30030C2E50E32A0E30E
:1018C0007F3983E2AC3083E25520E0E30020C3E5BA
:1018D0005520A0E30020C3E50E32A0E37F3983E268
:1018E000013C83E20120A0E3002083E51EFF2FE1FD
:1018F000FE3EE0E30B3043E20010A0E3001083E57E
:101900000020E0E3002083E53F2DE0E30F3012E507
:101910000F3002E5011081E20F0051E31EFF2FC1DD
:10192000F9FFFFEA0DC0A0E100D82DE904B04CE2B8
:10193000A2FFFFEB98FFFFEBECFFFFEB00681BE95A
:101940001EFF2FE10DC0A0E1F0D82DE904B04CE25C
:10195000FF4000E2FF5001E2FF6002E20070A0E3FE
:101960000B0700EB0D0054E304F19F97160200EA09
:10197000A8190000141A0000801A0000EC1A0000D8
:10198000F41B0000201D00008C1D00001C1E000028
:10199000AC1E00003C1F0000CC1F000074200000A3
:1019A000E4200000902100000E22A0E3092882E23A
:1019B000102082E20D36A0E3053C83E2003082E590
:1019C0000E22A0E3092882E2003092E5100013E322
:1019D000FCFFFF0A8E32A0E3093883E21020A0E367
:1019E000002083E50E22A0E3092882E2102082E293
:1019F0000638A0E1013C83E3003082E50E22A0E33B
:101A0000092882E2003092E5100013E3FCFFFF0A90
:101A1000E90100EA0E22A0E3092882E2102082E216
:101A20003637A0E3053C83E2003082E50E22A0E3D6
:101A3000092882E2003092E5100013E3FCFFFF0A60
:101A40008E32A0E3093883E21020A0E3002083E572
:101A50000E22A0E3092882E2102082E20638A0E1EB
:101A6000013C83E3003082E50E22A0E3092882E2F4
:101A7000003092E5100013E3FCFFFF0ACE0100EAFC

:10AB2800D0A90000D8A90000E0A90000E4A900000D
:10AB3800E8A90000ECA90000F0A90000F4A90000B1
:04AB4800E0070040E2
:10AB4C0020010000000000000000000000000000D8
:10AB5C00CC010040FC070040FC080040FC07004012
:10AB6C00FC070040FC070040FC070040900100403F
:10AB7C00A8770000C477000000000000E077000018
:10AB8C0000000000000000001001000000000000A8
:10AB9C00000000000100000014020040FC0800400E
:10ABAC00FC090040FC080040FC080040FC08004088
:10ABBC00FC080040D8010040A8770000C4770000D2
:10ABCC0000000000E0770000000000000000000022
:10ABDC001002000000000000000000000200000055
:10ABEC000000000000000000000000000000000059
:10ABFC0000000000000000000000000020020040E7
:10AC0C00A8770000C477000000000000E077000087
:10AC1C00000000000000000084010040CC01004056
:08AC2C00140200408401004005
:00000001FF
