:100BB000050054E1F8FFFFBA30681BE91EFF2FE182
:100BC000064A074B1A60E0231B0603221A70054AE7
:100BD00056235B421370552313707047E8C2C90156
:100BE000040000E0080000E07047C04670470000C5
:100BF00010B50B7858400006040E2301221C5A4001
:100C00001206140E0B881B0A20024340E0004340EA
:100C1000120F5A400A80088810BC02BC0847000026
:100C2000F0B581B0061C0D1C141C1F1C012802D03D
:100C3000022805D024E0014A03E0000063630000BD
:100C40000A4A6B4602331A80287801356946023118
:100C5000FFF7CEFF013C002CF6D1022E08D16A46E8
:100C600002321388DB43138002E00000FFFFFFFF26
:100C70006A46023213883B701288120A069B1A7069
:100C800001B0F0BC01BC0047F0B5061C0D1C0021F2
:100C90000020041CA84214D2FF270A12335D5340DF
:100CA0001B041B0C3B401A1153400A0219034A4013
:100CB00059014A4053401B041814011C0134AC4232
:100CC000EBD3C0430004000CF0BC02BC084700009A
:100CD000F0B5061C0D1CFFF789FF054A054B1A806D
:100CE0000020A84218D21C1CFF229446024F05E0A7
:100CF00000000000700F00404892000021880B0A9D
:100D0000325C53406246134009025B00DB5B594092
:100D100021800130A842F1D3024B1888F0BC02BCFC
:100D200008470000700F004000B5081C111CFFF7B9
:100D3000CFFF0004000C02BC0847000070B5041C83
:100D4000081C0021013801235B42984210D00B4E51
:100D500001256D4209040B0E227853405B00090AFD
:100D60009B5B4B401B04191401340138A842F1D19C
:100D70000804000C70BC02BC084700006894000026
:100D800070B5041C081C01214942013888420FD06B
:100D90000A4E0D1C09040B0E227853405B00090A11
:100DA0009B5B4B401B04191401340138A842F1D15C
:100DB0000804000C70BC02BC0847000068940000E6
:100DC000F0B5041C081C151C013801235B42984235
:100DD0000FD0094F0126764229880B0A227853400A
:100DE0005B000902DB5B4B402B8001340138B042D1
:100DF000F2D1F0BC01BC00476894000070B581B02E
:100E00001206160E1D062D0E6C460234064B23806C
:100E1000221CFFF7D5FF22882378AB4206D1130AA4
:100E2000B34203D1012002E000000000002001B025
:100E300070BC02BC0847C046084A1368042003433C
:100E40001360136808210B431360054A13680343BA
:100E5000136013680B43136070470000088002E0C2
:100E6000048002E030B50E4A13680824234313605F
:100E70000C4A136823431360136804252B43136043
:100E8000042008F099F9084A136823431360136893
:100E90002B431360052008F08FF930BC01BC0047DC
:100EA000088002E0048002E00C8002E030B50B4ACA
:100EB000136808252B431360094A13682B431360FA
:100EC000084C2368042213432360042008F074F9BB
:100ED00023682B43236030BC01BC0047088002E03C
:100EE0000C8002E0048002E0F0B557464646C0B4EC
:100EF0000006040E32490B68082213430B60314987
:100F00000B68042213430B60052008F055F90127F4
:100F10002D4E082292462B4D042398462306002B83
:100F200004DA336852461343336003E02B685246B9
:100F300013432B603368424613433360042008F0A8
:100F40003BF963061C0E2B68424613432B600520B9
:100F500008F032F97B1C1B041F14802212039342F9
:100F6000DCD9194C236808252B432360154A1368E4
:100F7000042633431360052008F01EF9104A136855
:100F8000AB431360236833432360042008F014F953
:100F90000E4B1B682B40002B01D0002400E00124E5
:100FA000084B1A6804210A431A60052008F004F966
:100FB000201C18BC9846A246F0BC02BC08470000A2
:100FC000088002E00C8002E0048002E0008002E081
:100FD000F0B557464646C0B40004001482460025CA
:100FE0002F4803680822134303602E490B681343FC
:100FF0000B600368934303600124884604272A4E4C
:101000006B061D0E424613683B431360042008F034
:10101000D3F8264B1B6808221340002B03D0012372
:101020002B431B061D0E33683B433360052008F03D
:10103000C3F8631C1B041C14802212039342DFD9E3
:10104000174B1A6808210A431A6052461304002BF2
:1010500004D1154A13680B4313600AE05246130487
:1010600080225202934204D10E4B1A6808210A438F
:101070001A600C4A1368042423431360042008F008
:101080009BF8094A136823431360052008F094F87D
:10109000281C18BC9846A246F0BC02BC08470000B9
:1010A000088002E0048002E00C8002E0008002E0A0
:1010B00000B5FFF7D7FE01BC0047000000B5FFF701
:1010C000F5FE01BC0047000000B50006000EFFF76A
:1010D0000BFF0006002801D0012000E0002002BC28
:1010E0000847000000B5000680235B0403431B0E85
:1010F000181CFFF7F9FE0006002801D0012000E0CF
:10110000002002BC0847000000B50006000EFFF7F3
:10111000EBFE0006002801D0012000E0002002BC08
:1011800001D1002400E00124FFF798FF002C01D1D9
:10119000002000E0012070BC02BC084770B50406C6
:1011A000240E09060D0E1206160EFFF781FF201CF5
:1011B000FFF78AFF0006002811D00220FFF7A4FFE6
:1011C000000600280BD0281CFFF79EFF0006002811
:1011D00005D0301CFFF798FF0006002801D100243D
:101330000AD14440FFF796FD4020FFF7D5FD02207B
:10AB2800D0A90000D8A90000E0A90000E4A900000D
:10AB3800E8A90000ECA90000F0A90000F4A90000B1
:04AB4800E0070040E2
:10AB4C0020010000000000000000000000000000D8
:10AB5C00CC010040FC070040FC080040FC07004012
:08AC2C00140200408401004005
:00000001FF
